:020000040800F2
:1000000000000120190500086905000869050008BD
:10001000690500086905000869050008000000007E
:10002000000000000000000000000000690500085A
:10003000690500080000000069050008690500085E
:1000400069050008690500086905000869050008D8
:1000500069050008690500084904000869050008E9
:1000600069050008690500086905000869050008B8
:1000700069050008690500086905000869050008A8
:10008000690500086905000869050008000000000E
:1000900000000000000000000000000069050008EA
:1000A0006905000869050008690500086905000878
:1000B0006905000869050008690500086905000868
:1000C0006905000869050008690500086905000858
:1000D00069050008690500086905000800000000BE
:1000E00069050008690500086905000800000000AE
:1000F000000000000000000000000000690500088A
:10010000000000006905000869050008690500088D
:1001100000000000000000000000000000000000DF
:1001200069050008690500086905000869050008F7
:100130006905000800000000000000000000000049
:100140000000000000000000000000006905000839
:1001500069050008690500086905000869050008C7
:1001600069050008690500080000000000000000A3
:10017000000000000000000000000000000000007F
:1001800000000000690500080000000000000000F9
:0401900069050008F5
:1001940010B5054C237833B9044B13B10448AFF3BD
:1001A40000800123237010BD5000002000000000D7
:1001B400B405000808B5034B1BB103490348AFF36A
:1001C400008008BD0000000054000020B4050008B1
:1001D40080B483B000AF0346FB71084B1B68FA7907
:1001E400012101FA02F21146044A0B43136000BFD5
:1001F4000C37BD465DF8047B704700BF30380240C1
:1002040090B482B000AF0446084611461A4623460D
:10021400FB710346BB710B467B7113463B71FA7944
:10022400564913469B001344DB000B441B681968B2
:10023400BB795B00032202FA03F3DB431C46FA7921
:100244004E4813469B001344DB0003441B6801EA39
:1002540004021A60FA79494913469B001344DB00EF
:100264000B441B6819687A79BB795B0002FA03F3C3
:100274001C46FA79414813469B001344DB000344AF
:100284001B6841EA04021A60FA793C4913469B0050
:100294001344DB000B4404331B681968BB79012247
:1002A40002FA03F3DB431C46FA79344813469B00F5
:1002B4001344DB00034404331B6801EA04021A609C
:1002C400FA792E4913469B001344DB000B44043394
:1002D4001B6819683B7903F00102BB7902FA03F346
:1002E4001C46FA79254813469B001344DB0003445B
:1002F40004331B6841EA04021A60FA791F49134661
:100304009B001344DB000B4408331B681968BB795A
:100314005B00032202FA03F3DB431C46FA79174815
:1003240013469B001344DB00034408331B6801EAB3
:1003340004021A60FA79114913469B001344DB0046
:100344000B4408331B6819683B795B1003F0030204
:10035400BB795B0002FA03F31C46FA79074813469B
:100364009B001344DB00034408331B6841EA040286
:100374001A6000BF0837BD4690BC704700000020DB
:1003840090B484B000AF0346FB710B46BB711346B7
:100394007B71FA792A4913469B001344DB000B4412
:1003A4001B681A68BB795B0022FA03F303F00303AA
:1003B400012B3DD17B79002B1BD0FA7920491346C0
:1003C4009B001344DB000B4410331B681968BB7992
:1003D400012202FA03F31C46FA79194813469B00DA
:1003E4001344DB00034410331B6841EA04021A601F
:1003F4001BE0FA79124913469B001344DB000B44BB
:1004040010331B681968BB79012202FA03F3DB433A
:100414001C46FA790A4813469B001344DB00034444
:1004240010331B6801EA04021A600023FB7301E025
:100434000123FB73FB7B18461037BD4690BC704705
:100444000000002080B500AF0A4B1B68DB43094A5B
:100454001360084B1B68DBB21A4601210020FFF72A
:100464008FFF054B1B68044A43F00103136000BF70
:1004740080BD00BF6C000020143C014080B500AF7B
:100484000020FFF7A5FE0223002200210020FFF731
:10049400B7FE0023012201210020FFF7B1FE0F4B1C
:1004A4001B680E4A43F4804313600D4B1B680C4ACF
:1004B40043F0010313600B4B1B680A4A43F001032A
:1004C4001360094B1B68084A43F040031360074B51
:1004D4001B68064A23F00F031360FEE7443802400A
:1004E400003C01400C3C014000E100E008380140C0
:1004F40080B400AF064BD3F88830054A43F4700348
:10050400C2F8883000BFBD465DF8047B704700BF69
:1005140000ED00E0DFF834D00D480E490E4A002308
:1005240002E0D458C4500433C4188C42F9D30B4AA3
:100534000B4C002301E013600432A242FBD3FFF70B
:10054400D7FF00F011F8FFF799FF70470000012072
:100554000000002050000020D405000850000020B6
:1005640070000020FEE7000070B50D4D0D4C641BBB
:10057400A4100026A64209D10B4D0C4C00F018F82B
:10058400641BA4100026A64205D170BD55F8043B97
:1005940098470136EEE755F8043B98470136F2E7F1
:1005A400CC050008CC050008CC050008D0050008DF
:1005B400F8B500BFF8BC08BC9E467047F8B500BF4C
:0805C400F8BC08BC9E4670471C
:0405CC00B901000869
:0405D0009501000889
:1005D40000000240040002400C00024010000240EF
:1005E4001400024008000240180002401C000240AF
:1005F400200002402400024000040240040402409F
:100604000C04024010040240140402400804024096
:10061400180402401C040240200402402404024046
:0400000508000519D1
:00000001FF
